{
  "_format": "hh-sol-artifact-1",
  "contractName": "RewardDistributor",
  "sourceName": "contracts/Reward.sol",
  "abi": [
    {
      "inputs": [
        {
          "internalType": "address",
          "name": "_nftContract",
          "type": "address"
        }
      ],
      "stateMutability": "nonpayable",
      "type": "constructor"
    },
    {
      "inputs": [
        {
          "internalType": "uint256",
          "name": "tokenId",
          "type": "uint256"
        }
      ],
      "name": "claimReward",
      "outputs": [],
      "stateMutability": "nonpayable",
      "type": "function"
    },
    {
      "inputs": [],
      "name": "depositFunds",
      "outputs": [],
      "stateMutability": "payable",
      "type": "function"
    },
    {
      "inputs": [
        {
          "internalType": "uint256",
          "name": "",
          "type": "uint256"
        }
      ],
      "name": "hasClaimed",
      "outputs": [
        {
          "internalType": "bool",
          "name": "",
          "type": "bool"
        }
      ],
      "stateMutability": "view",
      "type": "function"
    },
    {
      "inputs": [],
      "name": "nftContract",
      "outputs": [
        {
          "internalType": "contract IERC721",
          "name": "",
          "type": "address"
        }
      ],
      "stateMutability": "view",
      "type": "function"
    },
    {
      "inputs": [],
      "name": "owner",
      "outputs": [
        {
          "internalType": "address",
          "name": "",
          "type": "address"
        }
      ],
      "stateMutability": "view",
      "type": "function"
    },
    {
      "inputs": [],
      "name": "withdrawFunds",
      "outputs": [],
      "stateMutability": "nonpayable",
      "type": "function"
    }
  ],
  "bytecode": "0x608060405234801561001057600080fd5b50604051610aee380380610aee8339818101604052810190610032919061011c565b806000806101000a81548173ffffffffffffffffffffffffffffffffffffffff021916908373ffffffffffffffffffffffffffffffffffffffff16021790555033600260006101000a81548173ffffffffffffffffffffffffffffffffffffffff021916908373ffffffffffffffffffffffffffffffffffffffff16021790555050610149565b600080fd5b600073ffffffffffffffffffffffffffffffffffffffff82169050919050565b60006100e9826100be565b9050919050565b6100f9816100de565b811461010457600080fd5b50565b600081519050610116816100f0565b92915050565b600060208284031215610132576101316100b9565b5b600061014084828501610107565b91505092915050565b610996806101586000396000f3fe6080604052600436106100555760003560e01c806324600fc31461005a5780638da5cb5b14610071578063ae169a501461009c578063ce516507146100c5578063d56d229d14610102578063e2c41dbc1461012d575b600080fd5b34801561006657600080fd5b5061006f610137565b005b34801561007d57600080fd5b50610086610232565b604051610093919061059d565b60405180910390f35b3480156100a857600080fd5b506100c360048036038101906100be91906105f3565b610258565b005b3480156100d157600080fd5b506100ec60048036038101906100e791906105f3565b610486565b6040516100f9919061063b565b60405180910390f35b34801561010e57600080fd5b506101176104a6565b60405161012491906106b5565b60405180910390f35b6101356104ca565b005b600260009054906101000a900473ffffffffffffffffffffffffffffffffffffffff1673ffffffffffffffffffffffffffffffffffffffff163373ffffffffffffffffffffffffffffffffffffffff16146101c7576040517f08c379a00000000000000000000000000000000000000000000000000000000081526004016101be90610753565b60405180910390fd5b600260009054906101000a900473ffffffffffffffffffffffffffffffffffffffff1673ffffffffffffffffffffffffffffffffffffffff166108fc479081150290604051600060405180830381858888f1935050505015801561022f573d6000803e3d6000fd5b50565b600260009054906101000a900473ffffffffffffffffffffffffffffffffffffffff1681565b3373ffffffffffffffffffffffffffffffffffffffff1660008054906101000a900473ffffffffffffffffffffffffffffffffffffffff1673ffffffffffffffffffffffffffffffffffffffff16636352211e836040518263ffffffff1660e01b81526004016102c89190610782565b602060405180830381865afa1580156102e5573d6000803e3d6000fd5b505050506040513d601f19601f8201168201806040525081019061030991906107c9565b73ffffffffffffffffffffffffffffffffffffffff161461035f576040517f08c379a000000000000000000000000000000000000000000000000000000000815260040161035690610842565b60405180910390fd5b6001600082815260200190815260200160002060009054906101000a900460ff16156103c0576040517f08c379a00000000000000000000000000000000000000000000000000000000081526004016103b7906108d4565b60405180910390fd5b600180600083815260200190815260200160002060006101000a81548160ff021916908315150217905550600067016345785d8a000090508047101561043b576040517f08c379a000000000000000000000000000000000000000000000000000000000815260040161043290610940565b60405180910390fd5b3373ffffffffffffffffffffffffffffffffffffffff166108fc829081150290604051600060405180830381858888f19350505050158015610481573d6000803e3d6000fd5b505050565b60016020528060005260406000206000915054906101000a900460ff1681565b60008054906101000a900473ffffffffffffffffffffffffffffffffffffffff1681565b600260009054906101000a900473ffffffffffffffffffffffffffffffffffffffff1673ffffffffffffffffffffffffffffffffffffffff163373ffffffffffffffffffffffffffffffffffffffff161461055a576040517f08c379a000000000000000000000000000000000000000000000000000000000815260040161055190610753565b60405180910390fd5b565b600073ffffffffffffffffffffffffffffffffffffffff82169050919050565b60006105878261055c565b9050919050565b6105978161057c565b82525050565b60006020820190506105b2600083018461058e565b92915050565b600080fd5b6000819050919050565b6105d0816105bd565b81146105db57600080fd5b50565b6000813590506105ed816105c7565b92915050565b600060208284031215610609576106086105b8565b5b6000610617848285016105de565b91505092915050565b60008115159050919050565b61063581610620565b82525050565b6000602082019050610650600083018461062c565b92915050565b6000819050919050565b600061067b6106766106718461055c565b610656565b61055c565b9050919050565b600061068d82610660565b9050919050565b600061069f82610682565b9050919050565b6106af81610694565b82525050565b60006020820190506106ca60008301846106a6565b92915050565b600082825260208201905092915050565b7f4f6e6c792074686520636f6e7472616374206f776e65722063616e207065726660008201527f6f726d207468697320616374696f6e0000000000000000000000000000000000602082015250565b600061073d602f836106d0565b9150610748826106e1565b604082019050919050565b6000602082019050818103600083015261076c81610730565b9050919050565b61077c816105bd565b82525050565b60006020820190506107976000830184610773565b92915050565b6107a68161057c565b81146107b157600080fd5b50565b6000815190506107c38161079d565b92915050565b6000602082840312156107df576107de6105b8565b5b60006107ed848285016107b4565b91505092915050565b7f596f7520646f206e6f74206f776e2074686973204e4654000000000000000000600082015250565b600061082c6017836106d0565b9150610837826107f6565b602082019050919050565b6000602082019050818103600083015261085b8161081f565b9050919050565b7f52657761726420616c726561647920636c61696d656420666f7220746869732060008201527f4e46540000000000000000000000000000000000000000000000000000000000602082015250565b60006108be6023836106d0565b91506108c982610862565b604082019050919050565b600060208201905081810360008301526108ed816108b1565b9050919050565b7f496e73756666696369656e742066756e647320696e20636f6e74726163740000600082015250565b600061092a601e836106d0565b9150610935826108f4565b602082019050919050565b600060208201905081810360008301526109598161091d565b905091905056fea2646970667358221220f24facb6628d12ae630a873042142bcba99c459e34e82de6df682194eab35b3764736f6c634300081b0033",
  "linkReferences": {},
  "deployedLinkReferences": {}
}