{
  "_format": "hh-sol-artifact-1",
  "contractName": "VPS",
  "sourceName": "contracts/TBt.sol",
  "abi": [
    {
      "inputs": [
        {
          "internalType": "address",
          "name": "initialOwner",
          "type": "address"
        }
      ],
      "stateMutability": "nonpayable",
      "type": "constructor"
    },
    {
      "inputs": [
        {
          "internalType": "address",
          "name": "sender",
          "type": "address"
        },
        {
          "internalType": "uint256",
          "name": "tokenId",
          "type": "uint256"
        },
        {
          "internalType": "address",
          "name": "owner",
          "type": "address"
        }
      ],
      "name": "ERC721IncorrectOwner",
      "type": "error"
    },
    {
      "inputs": [
        {
          "internalType": "address",
          "name": "operator",
          "type": "address"
        },
        {
          "internalType": "uint256",
          "name": "tokenId",
          "type": "uint256"
        }
      ],
      "name": "ERC721InsufficientApproval",
      "type": "error"
    },
    {
      "inputs": [
        {
          "internalType": "address",
          "name": "approver",
          "type": "address"
        }
      ],
      "name": "ERC721InvalidApprover",
      "type": "error"
    },
    {
      "inputs": [
        {
          "internalType": "address",
          "name": "operator",
          "type": "address"
        }
      ],
      "name": "ERC721InvalidOperator",
      "type": "error"
    },
    {
      "inputs": [
        {
          "internalType": "address",
          "name": "owner",
          "type": "address"
        }
      ],
      "name": "ERC721InvalidOwner",
      "type": "error"
    },
    {
      "inputs": [
        {
          "internalType": "address",
          "name": "receiver",
          "type": "address"
        }
      ],
      "name": "ERC721InvalidReceiver",
      "type": "error"
    },
    {
      "inputs": [
        {
          "internalType": "address",
          "name": "sender",
          "type": "address"
        }
      ],
      "name": "ERC721InvalidSender",
      "type": "error"
    },
    {
      "inputs": [
        {
          "internalType": "uint256",
          "name": "tokenId",
          "type": "uint256"
        }
      ],
      "name": "ERC721NonexistentToken",
      "type": "error"
    },
    {
      "inputs": [
        {
          "internalType": "address",
          "name": "owner",
          "type": "address"
        }
      ],
      "name": "OwnableInvalidOwner",
      "type": "error"
    },
    {
      "inputs": [
        {
          "internalType": "address",
          "name": "account",
          "type": "address"
        }
      ],
      "name": "OwnableUnauthorizedAccount",
      "type": "error"
    },
    {
      "anonymous": false,
      "inputs": [
        {
          "indexed": true,
          "internalType": "address",
          "name": "owner",
          "type": "address"
        },
        {
          "indexed": true,
          "internalType": "address",
          "name": "approved",
          "type": "address"
        },
        {
          "indexed": true,
          "internalType": "uint256",
          "name": "tokenId",
          "type": "uint256"
        }
      ],
      "name": "Approval",
      "type": "event"
    },
    {
      "anonymous": false,
      "inputs": [
        {
          "indexed": true,
          "internalType": "address",
          "name": "owner",
          "type": "address"
        },
        {
          "indexed": true,
          "internalType": "address",
          "name": "operator",
          "type": "address"
        },
        {
          "indexed": false,
          "internalType": "bool",
          "name": "approved",
          "type": "bool"
        }
      ],
      "name": "ApprovalForAll",
      "type": "event"
    },
    {
      "anonymous": false,
      "inputs": [
        {
          "indexed": false,
          "internalType": "uint256",
          "name": "_fromTokenId",
          "type": "uint256"
        },
        {
          "indexed": false,
          "internalType": "uint256",
          "name": "_toTokenId",
          "type": "uint256"
        }
      ],
      "name": "BatchMetadataUpdate",
      "type": "event"
    },
    {
      "anonymous": false,
      "inputs": [
        {
          "indexed": false,
          "internalType": "uint256",
          "name": "_tokenId",
          "type": "uint256"
        }
      ],
      "name": "MetadataUpdate",
      "type": "event"
    },
    {
      "anonymous": false,
      "inputs": [
        {
          "indexed": true,
          "internalType": "address",
          "name": "previousOwner",
          "type": "address"
        },
        {
          "indexed": true,
          "internalType": "address",
          "name": "newOwner",
          "type": "address"
        }
      ],
      "name": "OwnershipTransferred",
      "type": "event"
    },
    {
      "anonymous": false,
      "inputs": [
        {
          "indexed": true,
          "internalType": "address",
          "name": "from",
          "type": "address"
        },
        {
          "indexed": true,
          "internalType": "address",
          "name": "to",
          "type": "address"
        },
        {
          "indexed": true,
          "internalType": "uint256",
          "name": "tokenId",
          "type": "uint256"
        }
      ],
      "name": "Transfer",
      "type": "event"
    },
    {
      "inputs": [
        {
          "internalType": "address",
          "name": "to",
          "type": "address"
        },
        {
          "internalType": "uint256",
          "name": "tokenId",
          "type": "uint256"
        }
      ],
      "name": "approve",
      "outputs": [],
      "stateMutability": "nonpayable",
      "type": "function"
    },
    {
      "inputs": [
        {
          "internalType": "address",
          "name": "owner",
          "type": "address"
        }
      ],
      "name": "balanceOf",
      "outputs": [
        {
          "internalType": "uint256",
          "name": "",
          "type": "uint256"
        }
      ],
      "stateMutability": "view",
      "type": "function"
    },
    {
      "inputs": [
        {
          "internalType": "uint256",
          "name": "",
          "type": "uint256"
        }
      ],
      "name": "expirationDate",
      "outputs": [
        {
          "internalType": "uint256",
          "name": "",
          "type": "uint256"
        }
      ],
      "stateMutability": "view",
      "type": "function"
    },
    {
      "inputs": [
        {
          "internalType": "uint256",
          "name": "tokenId",
          "type": "uint256"
        }
      ],
      "name": "getApproved",
      "outputs": [
        {
          "internalType": "address",
          "name": "",
          "type": "address"
        }
      ],
      "stateMutability": "view",
      "type": "function"
    },
    {
      "inputs": [
        {
          "internalType": "address",
          "name": "owner",
          "type": "address"
        },
        {
          "internalType": "address",
          "name": "operator",
          "type": "address"
        }
      ],
      "name": "isApprovedForAll",
      "outputs": [
        {
          "internalType": "bool",
          "name": "",
          "type": "bool"
        }
      ],
      "stateMutability": "view",
      "type": "function"
    },
    {
      "inputs": [],
      "name": "maxmint",
      "outputs": [
        {
          "internalType": "uint256",
          "name": "",
          "type": "uint256"
        }
      ],
      "stateMutability": "view",
      "type": "function"
    },
    {
      "inputs": [],
      "name": "minted",
      "outputs": [
        {
          "internalType": "uint256",
          "name": "",
          "type": "uint256"
        }
      ],
      "stateMutability": "view",
      "type": "function"
    },
    {
      "inputs": [],
      "name": "name",
      "outputs": [
        {
          "internalType": "string",
          "name": "",
          "type": "string"
        }
      ],
      "stateMutability": "view",
      "type": "function"
    },
    {
      "inputs": [],
      "name": "owner",
      "outputs": [
        {
          "internalType": "address",
          "name": "",
          "type": "address"
        }
      ],
      "stateMutability": "view",
      "type": "function"
    },
    {
      "inputs": [
        {
          "internalType": "uint256",
          "name": "tokenId",
          "type": "uint256"
        }
      ],
      "name": "ownerOf",
      "outputs": [
        {
          "internalType": "address",
          "name": "",
          "type": "address"
        }
      ],
      "stateMutability": "view",
      "type": "function"
    },
    {
      "inputs": [
        {
          "internalType": "address",
          "name": "recipient",
          "type": "address"
        }
      ],
      "name": "payToMint",
      "outputs": [
        {
          "internalType": "uint256",
          "name": "",
          "type": "uint256"
        }
      ],
      "stateMutability": "payable",
      "type": "function"
    },
    {
      "inputs": [],
      "name": "renounceOwnership",
      "outputs": [],
      "stateMutability": "nonpayable",
      "type": "function"
    },
    {
      "inputs": [
        {
          "internalType": "address",
          "name": "from",
          "type": "address"
        },
        {
          "internalType": "address",
          "name": "to",
          "type": "address"
        },
        {
          "internalType": "uint256",
          "name": "tokenId",
          "type": "uint256"
        }
      ],
      "name": "safeTransferFrom",
      "outputs": [],
      "stateMutability": "nonpayable",
      "type": "function"
    },
    {
      "inputs": [
        {
          "internalType": "address",
          "name": "from",
          "type": "address"
        },
        {
          "internalType": "address",
          "name": "to",
          "type": "address"
        },
        {
          "internalType": "uint256",
          "name": "tokenId",
          "type": "uint256"
        },
        {
          "internalType": "bytes",
          "name": "data",
          "type": "bytes"
        }
      ],
      "name": "safeTransferFrom",
      "outputs": [],
      "stateMutability": "nonpayable",
      "type": "function"
    },
    {
      "inputs": [
        {
          "internalType": "address",
          "name": "operator",
          "type": "address"
        },
        {
          "internalType": "bool",
          "name": "approved",
          "type": "bool"
        }
      ],
      "name": "setApprovalForAll",
      "outputs": [],
      "stateMutability": "nonpayable",
      "type": "function"
    },
    {
      "inputs": [
        {
          "internalType": "bytes4",
          "name": "interfaceId",
          "type": "bytes4"
        }
      ],
      "name": "supportsInterface",
      "outputs": [
        {
          "internalType": "bool",
          "name": "",
          "type": "bool"
        }
      ],
      "stateMutability": "view",
      "type": "function"
    },
    {
      "inputs": [],
      "name": "symbol",
      "outputs": [
        {
          "internalType": "string",
          "name": "",
          "type": "string"
        }
      ],
      "stateMutability": "view",
      "type": "function"
    },
    {
      "inputs": [
        {
          "internalType": "uint256",
          "name": "tokenId",
          "type": "uint256"
        }
      ],
      "name": "tokenURI",
      "outputs": [
        {
          "internalType": "string",
          "name": "",
          "type": "string"
        }
      ],
      "stateMutability": "view",
      "type": "function"
    },
    {
      "inputs": [
        {
          "internalType": "address",
          "name": "from",
          "type": "address"
        },
        {
          "internalType": "address",
          "name": "to",
          "type": "address"
        },
        {
          "internalType": "uint256",
          "name": "tokenId",
          "type": "uint256"
        }
      ],
      "name": "transferFrom",
      "outputs": [],
      "stateMutability": "nonpayable",
      "type": "function"
    },
    {
      "inputs": [
        {
          "internalType": "address",
          "name": "newOwner",
          "type": "address"
        }
      ],
      "name": "transferOwnership",
      "outputs": [],
      "stateMutability": "nonpayable",
      "type": "function"
    },
    {
      "inputs": [],
      "name": "withdraw",
      "outputs": [],
      "stateMutability": "nonpayable",
      "type": "function"
    }
  ],
  "bytecode": "0x60806040526064600a5534801561001557600080fd5b50604051612acc380380612acc83398181016040528101906100379190610277565b806040518060400160405280600381526020017f56505300000000000000000000000000000000000000000000000000000000008152506040518060400160405280600481526020017f736676700000000000000000000000000000000000000000000000000000000081525081600090816100b391906104f4565b5080600190816100c391906104f4565b505050600073ffffffffffffffffffffffffffffffffffffffff168173ffffffffffffffffffffffffffffffffffffffff16036101385760006040517f1e4fbdf700000000000000000000000000000000000000000000000000000000815260040161012f91906105d5565b60405180910390fd5b6101478161014e60201b60201c565b50506105f0565b6000600760009054906101000a900473ffffffffffffffffffffffffffffffffffffffff16905081600760006101000a81548173ffffffffffffffffffffffffffffffffffffffff021916908373ffffffffffffffffffffffffffffffffffffffff1602179055508173ffffffffffffffffffffffffffffffffffffffff168173ffffffffffffffffffffffffffffffffffffffff167f8be0079c531659141344cd1fd0a4f28419497f9722a3daafe3b4186f6b6457e060405160405180910390a35050565b600080fd5b600073ffffffffffffffffffffffffffffffffffffffff82169050919050565b600061024482610219565b9050919050565b61025481610239565b811461025f57600080fd5b50565b6000815190506102718161024b565b92915050565b60006020828403121561028d5761028c610214565b5b600061029b84828501610262565b91505092915050565b600081519050919050565b7f4e487b7100000000000000000000000000000000000000000000000000000000600052604160045260246000fd5b7f4e487b7100000000000000000000000000000000000000000000000000000000600052602260045260246000fd5b6000600282049050600182168061032557607f821691505b602082108103610338576103376102de565b5b50919050565b60008190508160005260206000209050919050565b60006020601f8301049050919050565b600082821b905092915050565b6000600883026103a07fffffffffffffffffffffffffffffffffffffffffffffffffffffffffffffffff82610363565b6103aa8683610363565b95508019841693508086168417925050509392505050565b6000819050919050565b6000819050919050565b60006103f16103ec6103e7846103c2565b6103cc565b6103c2565b9050919050565b6000819050919050565b61040b836103d6565b61041f610417826103f8565b848454610370565b825550505050565b600090565b610434610427565b61043f818484610402565b505050565b5b818110156104635761045860008261042c565b600181019050610445565b5050565b601f8211156104a8576104798161033e565b61048284610353565b81016020851015610491578190505b6104a561049d85610353565b830182610444565b50505b505050565b600082821c905092915050565b60006104cb600019846008026104ad565b1980831691505092915050565b60006104e483836104ba565b9150826002028217905092915050565b6104fd826102a4565b67ffffffffffffffff811115610516576105156102af565b5b610520825461030d565b61052b828285610467565b600060209050601f83116001811461055e576000841561054c578287015190505b61055685826104d8565b8655506105be565b601f19841661056c8661033e565b60005b828110156105945784890151825560018201915060208501945060208101905061056f565b868310156105b157848901516105ad601f8916826104ba565b8355505b6001600288020188555050505b505050505050565b6105cf81610239565b82525050565b60006020820190506105ea60008301846105c6565b92915050565b6124cd806105ff6000396000f3fe60806040526004361061012a5760003560e01c806370a08231116100ab578063a080ee8c1161006f578063a080ee8c146103d3578063a22cb46514610410578063b88d4fde14610439578063c87b56dd14610462578063e985e9c51461049f578063f2fde38b146104dc5761012a565b806370a08231146102fe578063715018a61461033b5780638aa80ea5146103525780638da5cb5b1461037d57806395d89b41146103a85761012a565b80633ccfd60b116100f25780633ccfd60b1461022657806342842e0e1461023d5780634f02c42014610266578063585b3282146102915780636352211e146102c15761012a565b806301ffc9a71461012f57806306fdde031461016c578063081812fc14610197578063095ea7b3146101d457806323b872dd146101fd575b600080fd5b34801561013b57600080fd5b5061015660048036038101906101519190611a9b565b610505565b6040516101639190611ae3565b60405180910390f35b34801561017857600080fd5b50610181610517565b60405161018e9190611b8e565b60405180910390f35b3480156101a357600080fd5b506101be60048036038101906101b99190611be6565b6105a9565b6040516101cb9190611c54565b60405180910390f35b3480156101e057600080fd5b506101fb60048036038101906101f69190611c9b565b6105c5565b005b34801561020957600080fd5b50610224600480360381019061021f9190611cdb565b6105db565b005b34801561023257600080fd5b5061023b6106dd565b005b34801561024957600080fd5b50610264600480360381019061025f9190611cdb565b6107e4565b005b34801561027257600080fd5b5061027b610804565b6040516102889190611d3d565b60405180910390f35b6102ab60048036038101906102a69190611d58565b61080a565b6040516102b89190611d3d565b60405180910390f35b3480156102cd57600080fd5b506102e860048036038101906102e39190611be6565b610906565b6040516102f59190611c54565b60405180910390f35b34801561030a57600080fd5b5061032560048036038101906103209190611d58565b610918565b6040516103329190611d3d565b60405180910390f35b34801561034757600080fd5b506103506109d2565b005b34801561035e57600080fd5b506103676109e6565b6040516103749190611d3d565b60405180910390f35b34801561038957600080fd5b506103926109ec565b60405161039f9190611c54565b60405180910390f35b3480156103b457600080fd5b506103bd610a16565b6040516103ca9190611b8e565b60405180910390f35b3480156103df57600080fd5b506103fa60048036038101906103f59190611be6565b610aa8565b6040516104079190611d3d565b60405180910390f35b34801561041c57600080fd5b5061043760048036038101906104329190611db1565b610ac0565b005b34801561044557600080fd5b50610460600480360381019061045b9190611f26565b610ad6565b005b34801561046e57600080fd5b5061048960048036038101906104849190611be6565b610af3565b6040516104969190611b8e565b60405180910390f35b3480156104ab57600080fd5b506104c660048036038101906104c19190611fa9565b610b7c565b6040516104d39190611ae3565b60405180910390f35b3480156104e857600080fd5b5061050360048036038101906104fe9190611d58565b610c10565b005b600061051082610c96565b9050919050565b60606000805461052690612018565b80601f016020809104026020016040519081016040528092919081815260200182805461055290612018565b801561059f5780601f106105745761010080835404028352916020019161059f565b820191906000526020600020905b81548152906001019060200180831161058257829003601f168201915b5050505050905090565b60006105b482610cf7565b506105be82610d7f565b9050919050565b6105d782826105d2610dbc565b610dc4565b5050565b600073ffffffffffffffffffffffffffffffffffffffff168273ffffffffffffffffffffffffffffffffffffffff160361064d5760006040517f64a0ae920000000000000000000000000000000000000000000000000000000081526004016106449190611c54565b60405180910390fd5b6000610661838361065c610dbc565b610dd6565b90508373ffffffffffffffffffffffffffffffffffffffff168173ffffffffffffffffffffffffffffffffffffffff16146106d7578382826040517f64283d7b0000000000000000000000000000000000000000000000000000000081526004016106ce93929190612049565b60405180910390fd5b50505050565b6106e5610ff0565b60004790506000811161072d576040517f08c379a0000000000000000000000000000000000000000000000000000000008152600401610724906120cc565b60405180910390fd5b60006107376109ec565b73ffffffffffffffffffffffffffffffffffffffff168260405161075a9061211d565b60006040518083038185875af1925050503d8060008114610797576040519150601f19603f3d011682016040523d82523d6000602084013e61079c565b606091505b50509050806107e0576040517f08c379a00000000000000000000000000000000000000000000000000000000081526004016107d79061217e565b60405180910390fd5b5050565b6107ff83838360405180602001604052806000815250610ad6565b505050565b60095481565b60006611c37937e08000341015610856576040517f08c379a000000000000000000000000000000000000000000000000000000000815260040161084d906121ea565b60405180910390fd5b600a546009541061089c576040517f08c379a000000000000000000000000000000000000000000000000000000000815260040161089390612256565b60405180910390fd5b6000600860008154809291906108b1906122a5565b9190505590506078426108c491906122ed565b600b6000838152602001908152602001600020819055506108e58382611077565b600960008154809291906108f8906122a5565b919050555080915050919050565b600061091182610cf7565b9050919050565b60008073ffffffffffffffffffffffffffffffffffffffff168273ffffffffffffffffffffffffffffffffffffffff160361098b5760006040517f89c62b640000000000000000000000000000000000000000000000000000000081526004016109829190611c54565b60405180910390fd5b600360008373ffffffffffffffffffffffffffffffffffffffff1673ffffffffffffffffffffffffffffffffffffffff168152602001908152602001600020549050919050565b6109da610ff0565b6109e46000611170565b565b600a5481565b6000600760009054906101000a900473ffffffffffffffffffffffffffffffffffffffff16905090565b606060018054610a2590612018565b80601f0160208091040260200160405190810160405280929190818152602001828054610a5190612018565b8015610a9e5780601f10610a7357610100808354040283529160200191610a9e565b820191906000526020600020905b815481529060010190602001808311610a8157829003601f168201915b5050505050905090565b600b6020528060005260406000206000915090505481565b610ad2610acb610dbc565b8383611236565b5050565b610ae18484846105db565b610aed848484846113a5565b50505050565b606060006040518060a00160405280606a815260200161242e606a9139905060006040518060400160405280600781526020017f6578706972656400000000000000000000000000000000000000000000000000815250905042600b6000868152602001908152602001600020541115610b71578192505050610b77565b80925050505b919050565b6000600560008473ffffffffffffffffffffffffffffffffffffffff1673ffffffffffffffffffffffffffffffffffffffff16815260200190815260200160002060008373ffffffffffffffffffffffffffffffffffffffff1673ffffffffffffffffffffffffffffffffffffffff16815260200190815260200160002060009054906101000a900460ff16905092915050565b610c18610ff0565b600073ffffffffffffffffffffffffffffffffffffffff168173ffffffffffffffffffffffffffffffffffffffff1603610c8a5760006040517f1e4fbdf7000000000000000000000000000000000000000000000000000000008152600401610c819190611c54565b60405180910390fd5b610c9381611170565b50565b6000634906490660e01b7bffffffffffffffffffffffffffffffffffffffffffffffffffffffff1916827bffffffffffffffffffffffffffffffffffffffffffffffffffffffff19161480610cf05750610cef8261155c565b5b9050919050565b600080610d038361163e565b9050600073ffffffffffffffffffffffffffffffffffffffff168173ffffffffffffffffffffffffffffffffffffffff1603610d7657826040517f7e273289000000000000000000000000000000000000000000000000000000008152600401610d6d9190611d3d565b60405180910390fd5b80915050919050565b60006004600083815260200190815260200160002060009054906101000a900473ffffffffffffffffffffffffffffffffffffffff169050919050565b600033905090565b610dd1838383600161167b565b505050565b600080610de28461163e565b9050600073ffffffffffffffffffffffffffffffffffffffff168373ffffffffffffffffffffffffffffffffffffffff1614610e2457610e23818486611840565b5b600073ffffffffffffffffffffffffffffffffffffffff168173ffffffffffffffffffffffffffffffffffffffff1614610eb557610e6660008560008061167b565b6001600360008373ffffffffffffffffffffffffffffffffffffffff1673ffffffffffffffffffffffffffffffffffffffff168152602001908152602001600020600082825403925050819055505b600073ffffffffffffffffffffffffffffffffffffffff168573ffffffffffffffffffffffffffffffffffffffff1614610f38576001600360008773ffffffffffffffffffffffffffffffffffffffff1673ffffffffffffffffffffffffffffffffffffffff168152602001908152602001600020600082825401925050819055505b846002600086815260200190815260200160002060006101000a81548173ffffffffffffffffffffffffffffffffffffffff021916908373ffffffffffffffffffffffffffffffffffffffff160217905550838573ffffffffffffffffffffffffffffffffffffffff168273ffffffffffffffffffffffffffffffffffffffff167fddf252ad1be2c89b69c2b068fc378daa952ba7f163c4a11628f55a4df523b3ef60405160405180910390a4809150509392505050565b610ff8610dbc565b73ffffffffffffffffffffffffffffffffffffffff166110166109ec565b73ffffffffffffffffffffffffffffffffffffffff161461107557611039610dbc565b6040517f118cdaa700000000000000000000000000000000000000000000000000000000815260040161106c9190611c54565b60405180910390fd5b565b600073ffffffffffffffffffffffffffffffffffffffff168273ffffffffffffffffffffffffffffffffffffffff16036110e95760006040517f64a0ae920000000000000000000000000000000000000000000000000000000081526004016110e09190611c54565b60405180910390fd5b60006110f783836000610dd6565b9050600073ffffffffffffffffffffffffffffffffffffffff168173ffffffffffffffffffffffffffffffffffffffff161461116b5760006040517f73c6ac6e0000000000000000000000000000000000000000000000000000000081526004016111629190611c54565b60405180910390fd5b505050565b6000600760009054906101000a900473ffffffffffffffffffffffffffffffffffffffff16905081600760006101000a81548173ffffffffffffffffffffffffffffffffffffffff021916908373ffffffffffffffffffffffffffffffffffffffff1602179055508173ffffffffffffffffffffffffffffffffffffffff168173ffffffffffffffffffffffffffffffffffffffff167f8be0079c531659141344cd1fd0a4f28419497f9722a3daafe3b4186f6b6457e060405160405180910390a35050565b600073ffffffffffffffffffffffffffffffffffffffff168273ffffffffffffffffffffffffffffffffffffffff16036112a757816040517f5b08ba1800000000000000000000000000000000000000000000000000000000815260040161129e9190611c54565b60405180910390fd5b80600560008573ffffffffffffffffffffffffffffffffffffffff1673ffffffffffffffffffffffffffffffffffffffff16815260200190815260200160002060008473ffffffffffffffffffffffffffffffffffffffff1673ffffffffffffffffffffffffffffffffffffffff16815260200190815260200160002060006101000a81548160ff0219169083151502179055508173ffffffffffffffffffffffffffffffffffffffff168373ffffffffffffffffffffffffffffffffffffffff167f17307eab39ab6107e8899845ad3d59bd9653f200f220920489ca2b5937696c31836040516113989190611ae3565b60405180910390a3505050565b60008373ffffffffffffffffffffffffffffffffffffffff163b1115611556578273ffffffffffffffffffffffffffffffffffffffff1663150b7a026113e9610dbc565b8685856040518563ffffffff1660e01b815260040161140b9493929190612376565b6020604051808303816000875af192505050801561144757506040513d601f19601f8201168201806040525081019061144491906123d7565b60015b6114cb573d8060008114611477576040519150601f19603f3d011682016040523d82523d6000602084013e61147c565b606091505b5060008151036114c357836040517f64a0ae920000000000000000000000000000000000000000000000000000000081526004016114ba9190611c54565b60405180910390fd5b805181602001fd5b63150b7a0260e01b7bffffffffffffffffffffffffffffffffffffffffffffffffffffffff1916817bffffffffffffffffffffffffffffffffffffffffffffffffffffffff19161461155457836040517f64a0ae9200000000000000000000000000000000000000000000000000000000815260040161154b9190611c54565b60405180910390fd5b505b50505050565b60007f80ac58cd000000000000000000000000000000000000000000000000000000007bffffffffffffffffffffffffffffffffffffffffffffffffffffffff1916827bffffffffffffffffffffffffffffffffffffffffffffffffffffffff1916148061162757507f5b5e139f000000000000000000000000000000000000000000000000000000007bffffffffffffffffffffffffffffffffffffffffffffffffffffffff1916827bffffffffffffffffffffffffffffffffffffffffffffffffffffffff1916145b80611637575061163682611904565b5b9050919050565b60006002600083815260200190815260200160002060009054906101000a900473ffffffffffffffffffffffffffffffffffffffff169050919050565b80806116b45750600073ffffffffffffffffffffffffffffffffffffffff168273ffffffffffffffffffffffffffffffffffffffff1614155b156117e85760006116c484610cf7565b9050600073ffffffffffffffffffffffffffffffffffffffff168373ffffffffffffffffffffffffffffffffffffffff161415801561172f57508273ffffffffffffffffffffffffffffffffffffffff168173ffffffffffffffffffffffffffffffffffffffff1614155b801561174257506117408184610b7c565b155b1561178457826040517fa9fbf51f00000000000000000000000000000000000000000000000000000000815260040161177b9190611c54565b60405180910390fd5b81156117e657838573ffffffffffffffffffffffffffffffffffffffff168273ffffffffffffffffffffffffffffffffffffffff167f8c5be1e5ebec7d5bd14f71427d1e84f3dd0314c0f7b2291e5b200ac8c7c3b92560405160405180910390a45b505b836004600085815260200190815260200160002060006101000a81548173ffffffffffffffffffffffffffffffffffffffff021916908373ffffffffffffffffffffffffffffffffffffffff16021790555050505050565b61184b83838361196e565b6118ff57600073ffffffffffffffffffffffffffffffffffffffff168373ffffffffffffffffffffffffffffffffffffffff16036118c057806040517f7e2732890000000000000000000000000000000000000000000000000000000081526004016118b79190611d3d565b60405180910390fd5b81816040517f177e802f0000000000000000000000000000000000000000000000000000000081526004016118f6929190612404565b60405180910390fd5b505050565b60007f01ffc9a7000000000000000000000000000000000000000000000000000000007bffffffffffffffffffffffffffffffffffffffffffffffffffffffff1916827bffffffffffffffffffffffffffffffffffffffffffffffffffffffff1916149050919050565b60008073ffffffffffffffffffffffffffffffffffffffff168373ffffffffffffffffffffffffffffffffffffffff1614158015611a2657508273ffffffffffffffffffffffffffffffffffffffff168473ffffffffffffffffffffffffffffffffffffffff1614806119e757506119e68484610b7c565b5b80611a2557508273ffffffffffffffffffffffffffffffffffffffff16611a0d83610d7f565b73ffffffffffffffffffffffffffffffffffffffff16145b5b90509392505050565b6000604051905090565b600080fd5b600080fd5b60007fffffffff0000000000000000000000000000000000000000000000000000000082169050919050565b611a7881611a43565b8114611a8357600080fd5b50565b600081359050611a9581611a6f565b92915050565b600060208284031215611ab157611ab0611a39565b5b6000611abf84828501611a86565b91505092915050565b60008115159050919050565b611add81611ac8565b82525050565b6000602082019050611af86000830184611ad4565b92915050565b600081519050919050565b600082825260208201905092915050565b60005b83811015611b38578082015181840152602081019050611b1d565b60008484015250505050565b6000601f19601f8301169050919050565b6000611b6082611afe565b611b6a8185611b09565b9350611b7a818560208601611b1a565b611b8381611b44565b840191505092915050565b60006020820190508181036000830152611ba88184611b55565b905092915050565b6000819050919050565b611bc381611bb0565b8114611bce57600080fd5b50565b600081359050611be081611bba565b92915050565b600060208284031215611bfc57611bfb611a39565b5b6000611c0a84828501611bd1565b91505092915050565b600073ffffffffffffffffffffffffffffffffffffffff82169050919050565b6000611c3e82611c13565b9050919050565b611c4e81611c33565b82525050565b6000602082019050611c696000830184611c45565b92915050565b611c7881611c33565b8114611c8357600080fd5b50565b600081359050611c9581611c6f565b92915050565b60008060408385031215611cb257611cb1611a39565b5b6000611cc085828601611c86565b9250506020611cd185828601611bd1565b9150509250929050565b600080600060608486031215611cf457611cf3611a39565b5b6000611d0286828701611c86565b9350506020611d1386828701611c86565b9250506040611d2486828701611bd1565b9150509250925092565b611d3781611bb0565b82525050565b6000602082019050611d526000830184611d2e565b92915050565b600060208284031215611d6e57611d6d611a39565b5b6000611d7c84828501611c86565b91505092915050565b611d8e81611ac8565b8114611d9957600080fd5b50565b600081359050611dab81611d85565b92915050565b60008060408385031215611dc857611dc7611a39565b5b6000611dd685828601611c86565b9250506020611de785828601611d9c565b9150509250929050565b600080fd5b600080fd5b7f4e487b7100000000000000000000000000000000000000000000000000000000600052604160045260246000fd5b611e3382611b44565b810181811067ffffffffffffffff82111715611e5257611e51611dfb565b5b80604052505050565b6000611e65611a2f565b9050611e718282611e2a565b919050565b600067ffffffffffffffff821115611e9157611e90611dfb565b5b611e9a82611b44565b9050602081019050919050565b82818337600083830152505050565b6000611ec9611ec484611e76565b611e5b565b905082815260208101848484011115611ee557611ee4611df6565b5b611ef0848285611ea7565b509392505050565b600082601f830112611f0d57611f0c611df1565b5b8135611f1d848260208601611eb6565b91505092915050565b60008060008060808587031215611f4057611f3f611a39565b5b6000611f4e87828801611c86565b9450506020611f5f87828801611c86565b9350506040611f7087828801611bd1565b925050606085013567ffffffffffffffff811115611f9157611f90611a3e565b5b611f9d87828801611ef8565b91505092959194509250565b60008060408385031215611fc057611fbf611a39565b5b6000611fce85828601611c86565b9250506020611fdf85828601611c86565b9150509250929050565b7f4e487b7100000000000000000000000000000000000000000000000000000000600052602260045260246000fd5b6000600282049050600182168061203057607f821691505b60208210810361204357612042611fe9565b5b50919050565b600060608201905061205e6000830186611c45565b61206b6020830185611d2e565b6120786040830184611c45565b949350505050565b7f4e6f2066756e647320617661696c61626c650000000000000000000000000000600082015250565b60006120b6601283611b09565b91506120c182612080565b602082019050919050565b600060208201905081810360008301526120e5816120a9565b9050919050565b600081905092915050565b50565b60006121076000836120ec565b9150612112826120f7565b600082019050919050565b6000612128826120fa565b9150819050919050565b7f5769746864726177616c206661696c6564000000000000000000000000000000600082015250565b6000612168601183611b09565b915061217382612132565b602082019050919050565b600060208201905081810360008301526121978161215b565b9050919050565b7f4e65656420746f20706179207570210000000000000000000000000000000000600082015250565b60006121d4600f83611b09565b91506121df8261219e565b602082019050919050565b60006020820190508181036000830152612203816121c7565b9050919050565b7f536f6c64206f7574000000000000000000000000000000000000000000000000600082015250565b6000612240600883611b09565b915061224b8261220a565b602082019050919050565b6000602082019050818103600083015261226f81612233565b9050919050565b7f4e487b7100000000000000000000000000000000000000000000000000000000600052601160045260246000fd5b60006122b082611bb0565b91507fffffffffffffffffffffffffffffffffffffffffffffffffffffffffffffffff82036122e2576122e1612276565b5b600182019050919050565b60006122f882611bb0565b915061230383611bb0565b925082820190508082111561231b5761231a612276565b5b92915050565b600081519050919050565b600082825260208201905092915050565b600061234882612321565b612352818561232c565b9350612362818560208601611b1a565b61236b81611b44565b840191505092915050565b600060808201905061238b6000830187611c45565b6123986020830186611c45565b6123a56040830185611d2e565b81810360608301526123b7818461233d565b905095945050505050565b6000815190506123d181611a6f565b92915050565b6000602082840312156123ed576123ec611a39565b5b60006123fb848285016123c2565b91505092915050565b60006040820190506124196000830185611c45565b6124266020830184611d2e565b939250505056fe68747470733a2f2f6c6176656e6465722d66616e7461737469632d616e74656c6f70652d3639382e6d7970696e6174612e636c6f75642f697066732f516d5144584834554a72547a77676d346f594d5365316a373342746237666773564166427978655a7a4c326d7a41a2646970667358221220b05389ddf6aa33038c70e9d6bbfa598b012b2e727cc67c85cfec84c251cb09d664736f6c634300081b0033",
  "linkReferences": {},
  "deployedLinkReferences": {}
}