{
  "_format": "hh-sol-artifact-1",
  "contractName": "sm",
  "sourceName": "contracts/SendRecieve.sol",
  "abi": [
    {
      "inputs": [
        {
          "internalType": "address",
          "name": "initialOwner",
          "type": "address"
        }
      ],
      "stateMutability": "nonpayable",
      "type": "constructor"
    },
    {
      "inputs": [
        {
          "internalType": "address",
          "name": "owner",
          "type": "address"
        }
      ],
      "name": "OwnableInvalidOwner",
      "type": "error"
    },
    {
      "inputs": [
        {
          "internalType": "address",
          "name": "account",
          "type": "address"
        }
      ],
      "name": "OwnableUnauthorizedAccount",
      "type": "error"
    },
    {
      "anonymous": false,
      "inputs": [
        {
          "indexed": true,
          "internalType": "address",
          "name": "previousOwner",
          "type": "address"
        },
        {
          "indexed": true,
          "internalType": "address",
          "name": "newOwner",
          "type": "address"
        }
      ],
      "name": "OwnershipTransferred",
      "type": "event"
    },
    {
      "inputs": [],
      "name": "deposit",
      "outputs": [],
      "stateMutability": "payable",
      "type": "function"
    },
    {
      "inputs": [],
      "name": "owner",
      "outputs": [
        {
          "internalType": "address",
          "name": "",
          "type": "address"
        }
      ],
      "stateMutability": "view",
      "type": "function"
    },
    {
      "inputs": [],
      "name": "renounceOwnership",
      "outputs": [],
      "stateMutability": "nonpayable",
      "type": "function"
    },
    {
      "inputs": [
        {
          "internalType": "address[]",
          "name": "recipients",
          "type": "address[]"
        }
      ],
      "name": "send",
      "outputs": [],
      "stateMutability": "payable",
      "type": "function"
    },
    {
      "inputs": [
        {
          "internalType": "address",
          "name": "newOwner",
          "type": "address"
        }
      ],
      "name": "transferOwnership",
      "outputs": [],
      "stateMutability": "nonpayable",
      "type": "function"
    }
  ],
  "bytecode": "0x608060405234801561001057600080fd5b50604051610b74380380610b74833981810160405281019061003291906101e2565b80600073ffffffffffffffffffffffffffffffffffffffff168173ffffffffffffffffffffffffffffffffffffffff16036100a55760006040517f1e4fbdf700000000000000000000000000000000000000000000000000000000815260040161009c919061021e565b60405180910390fd5b6100b4816100bb60201b60201c565b5050610239565b60008060009054906101000a900473ffffffffffffffffffffffffffffffffffffffff169050816000806101000a81548173ffffffffffffffffffffffffffffffffffffffff021916908373ffffffffffffffffffffffffffffffffffffffff1602179055508173ffffffffffffffffffffffffffffffffffffffff168173ffffffffffffffffffffffffffffffffffffffff167f8be0079c531659141344cd1fd0a4f28419497f9722a3daafe3b4186f6b6457e060405160405180910390a35050565b600080fd5b600073ffffffffffffffffffffffffffffffffffffffff82169050919050565b60006101af82610184565b9050919050565b6101bf816101a4565b81146101ca57600080fd5b50565b6000815190506101dc816101b6565b92915050565b6000602082840312156101f8576101f761017f565b5b6000610206848285016101cd565b91505092915050565b610218816101a4565b82525050565b6000602082019050610233600083018461020f565b92915050565b61092c806102486000396000f3fe60806040526004361061004a5760003560e01c8063298c07331461004f578063715018a61461006b5780638da5cb5b14610082578063d0e30db0146100ad578063f2fde38b146100b7575b600080fd5b61006960048036038101906100649190610554565b6100e0565b005b34801561007757600080fd5b5061008061027c565b005b34801561008e57600080fd5b50610097610290565b6040516100a491906105e2565b60405180910390f35b6100b56102b9565b005b3480156100c357600080fd5b506100de60048036038101906100d99190610629565b61030c565b005b6100e8610392565b600047905060008111610130576040517f08c379a0000000000000000000000000000000000000000000000000000000008152600401610127906106b3565b60405180910390fd5b60008383905082610141919061070c565b905060008111610186576040517f08c379a000000000000000000000000000000000000000000000000000000000815260040161017d90610789565b60405180910390fd5b60005b848490508110156102755760008585838181106101a9576101a86107a9565b5b90506020020160208101906101be9190610629565b73ffffffffffffffffffffffffffffffffffffffff16836040516101e190610809565b60006040518083038185875af1925050503d806000811461021e576040519150601f19603f3d011682016040523d82523d6000602084013e610223565b606091505b5050905080610267576040517f08c379a000000000000000000000000000000000000000000000000000000000815260040161025e9061086a565b60405180910390fd5b508080600101915050610189565b5050505050565b610284610392565b61028e6000610419565b565b60008060009054906101000a900473ffffffffffffffffffffffffffffffffffffffff16905090565b6102c1610392565b6611c37937e08000341161030a576040517f08c379a0000000000000000000000000000000000000000000000000000000008152600401610301906108d6565b60405180910390fd5b565b610314610392565b600073ffffffffffffffffffffffffffffffffffffffff168173ffffffffffffffffffffffffffffffffffffffff16036103865760006040517f1e4fbdf700000000000000000000000000000000000000000000000000000000815260040161037d91906105e2565b60405180910390fd5b61038f81610419565b50565b61039a6104dd565b73ffffffffffffffffffffffffffffffffffffffff166103b8610290565b73ffffffffffffffffffffffffffffffffffffffff1614610417576103db6104dd565b6040517f118cdaa700000000000000000000000000000000000000000000000000000000815260040161040e91906105e2565b60405180910390fd5b565b60008060009054906101000a900473ffffffffffffffffffffffffffffffffffffffff169050816000806101000a81548173ffffffffffffffffffffffffffffffffffffffff021916908373ffffffffffffffffffffffffffffffffffffffff1602179055508173ffffffffffffffffffffffffffffffffffffffff168173ffffffffffffffffffffffffffffffffffffffff167f8be0079c531659141344cd1fd0a4f28419497f9722a3daafe3b4186f6b6457e060405160405180910390a35050565b600033905090565b600080fd5b600080fd5b600080fd5b600080fd5b600080fd5b60008083601f840112610514576105136104ef565b5b8235905067ffffffffffffffff811115610531576105306104f4565b5b60208301915083602082028301111561054d5761054c6104f9565b5b9250929050565b6000806020838503121561056b5761056a6104e5565b5b600083013567ffffffffffffffff811115610589576105886104ea565b5b610595858286016104fe565b92509250509250929050565b600073ffffffffffffffffffffffffffffffffffffffff82169050919050565b60006105cc826105a1565b9050919050565b6105dc816105c1565b82525050565b60006020820190506105f760008301846105d3565b92915050565b610606816105c1565b811461061157600080fd5b50565b600081359050610623816105fd565b92915050565b60006020828403121561063f5761063e6104e5565b5b600061064d84828501610614565b91505092915050565b600082825260208201905092915050565b7f4e6f2066756e647320617661696c61626c650000000000000000000000000000600082015250565b600061069d601283610656565b91506106a882610667565b602082019050919050565b600060208201905081810360008301526106cc81610690565b9050919050565b6000819050919050565b7f4e487b7100000000000000000000000000000000000000000000000000000000600052601260045260246000fd5b6000610717826106d3565b9150610722836106d3565b925082610732576107316106dd565b5b828204905092915050565b7f4e6f7420656e6f75676820457468657220746f20646973747269627574650000600082015250565b6000610773601e83610656565b915061077e8261073d565b602082019050919050565b600060208201905081810360008301526107a281610766565b9050919050565b7f4e487b7100000000000000000000000000000000000000000000000000000000600052603260045260246000fd5b600081905092915050565b50565b60006107f36000836107d8565b91506107fe826107e3565b600082019050919050565b6000610814826107e6565b9150819050919050565b7f4574686572207472616e73666572206661696c65640000000000000000000000600082015250565b6000610854601583610656565b915061085f8261081e565b602082019050919050565b6000602082019050818103600083015261088381610847565b9050919050565b7f416464206120626974206d6f7265206d6f6e65792c20706c6561736500000000600082015250565b60006108c0601c83610656565b91506108cb8261088a565b602082019050919050565b600060208201905081810360008301526108ef816108b3565b905091905056fea2646970667358221220b54439cc135666a606bd5a1e2549457719037b387156aca0264a02ecf55d903e64736f6c634300081b0033",
  "linkReferences": {},
  "deployedLinkReferences": {}
}